:10000000420C04000000000000000000000000009E
:1000100000000000000000000000000000000000E0
:1000200000000000000000000000000000000000D0
:1000300000000000740B0000000000000000000041
:1000400000000000000000000000000000000000B0
:1000500000000000000000000000000000000000A0
:100060000000000000000000000000000000000090
:100070000000000000000000000000000000000080
:100080000000000000000000000000000000000070
:100090000000000000000000000000000000000060
:1000A0000000000000000000000000000000000050
:1000B0000000000000000000000000000000000040
:1000C0000000000000000000000000000000000030
:1000D0000000000000000000000000000000000020
:1000E0000000000000000000000000000000000010
:1000F0000000000000000000000000000000000000
:1001000000000000000000000000000000000000EF
:1001100000000000000000000000000000000000DF
:1001200000000000000000000000000000000000CF
:1001300000000000000000000000000000000000BF
:1001400000000000000000000000000000000000AF
:10015000000000000000000000000000000000009F
:10016000000000000000000000000000000000008F
:10017000000000000000000000000000000000007F
:10018000000000000000000000000000000000006F
:10019000000000000000000000000000000000005F
:1001A000000000000000000000000000000000004F
:1001B000000000000000000000000000000000003F
:1001C000000000000000000000000000000000002F
:1001D000000000000000000000000000000000001F
:1001E000000000000000000000000000000000000F
:1001F00000000000000000000000000000000000FF
:101884008F882000F0FF200020A0B7000000200077
:1018940034A0B700400020004420B700C4FE070075
:1018A40068062000B79C2B000E20ED00FEFF3A00D6
:1018B4001020ED00FCFF3A0000000000F8FF3700A4
:0418C400FFFF3700EB
:1013B4008A1F78008B1F78008C1F7800F0FF2F00A5
:1013C400A8A2B700A02D2000D0438800C187200028
:1013D4000020EF0080487800C08720009080FB0048
:1013E400100020000100DD008080EA00802D200034
:1013F40010886000A02D20008040880021812000FA
:1014040010C0B30080487800208120009080FB0049
:10141400100020000100DD008080EA00802D200003
:1014240010886000A02D200060408800E18020002A
:1014340020C0B30080487800E08020009080FB004A
:10144400100020000100DD008080EA00802D2000D3
:1014540010886000A02D2000C0408800A1812000D9
:1014640030C0B30080487800A08120009080FB0049
:10147400100020000100DD008080EA00802D2000A3
:1014840010886000802C2000A0408800618120002A
:101494000020EF0080487800608120009080FB00ED
:1014A400100020008100DD00602C200010887000F6
:1014B400802C2000004088002180200010C0B30050
:1014C40080487800208020009080FB0010002000DD
:1014D4008100DD00602C200010887000802C20002A
:1014E40040408800A180200020C0B30080487800DC
:1014F400A08020009080FB00100020008100DD000F
:10150400602C200010887000802C2000204088006F
:101514006180200030C0B3008048780060802000E3
:101524009080FB00100020008100DD00602C200072
:1015340010887000802C20007042880001852000F3
:1015440040C0B30080487800008520009080FB00F4
:10155400100020008100DD00602C20001088700045
:10156400802C200050428800C184200050C0B30069
:1015740080487800C08420009080FB001000200088
:101584008100DD00602C2000108870005CC0B30076
:101594001620EF006A862000C080200001000900A8
:1015A400B01F78000081200001000900B01F7800FE
:1015B400A087200001000900B01F780044FE070046
:1015C400CF00B1005CC0B3001620EF002A852000D4
:1015D4008081200001000900B01F780000812000F4
:1015E40001000900B01F7800A08720000100090055
:1015F400B01F780036FE0700CF00B10091842000B0
:10160400F0C0B30080487800AB0020002A8320009B
:101614008080200001000900B01F780000802000B5
:1016240001000900B01F780040812000010009007A
:10163400B01F78009FFE0700CF00B100AB00200070
:10164400CA812000A084200001000900B01F780096
:10165400E084200001000900B01F780040802000D1
:1016640001000900B01F780092FE0700CF00B1000E
:101674008184200020C0B30080487800FB2621002C
:101684003CA823001AC0B30035FE07004BC0B300CA
:101694001AC0B300F4FC0700040007004F067800EA
:0C16A400CF0578004F057800000006001C
:100ED4000000FA006A00570001000900301D780084
:100EE400E40045006E00570001000900B0187800C6
:100EF400E80045007200570001000900B0187800AE
:100F04006D0045000C4878006C0045000B487800E3
:100F1400EE0045000020EF00804878000080FA00D1
:040F240000000600C3
:1010B8000200FA006A00570001000900301D78009C
:1010C8006C004500000798000A0078008A9FBE005F
:1010D80001000900B01F780091FF07004F00B10020
:1010E8004F05BE008E00900080487800E40045005F
:1010F8006E00570001000900B0187800E8004500AC
:101108007200570001000900B01878006E01450010
:10111800803E20000058B8004100DE000009780039
:10112800F20045000020EF0080487800F0004500FC
:101138000020EF0080087800F30045000020EF0051
:1011480080487800F40045000020EF0080487800CF
:081158000080FA00000006000F
:100F28000000FA003EB99700680057009080FB0067
:100F3800100020008100DD001280FB00010060002D
:100F48000200320011C0B300010037000220EF0098
:0C0F5800014078000080FA000000060054
:100F64008A1F78008B1F78008C1F78008B1F7800F5
:100F74008C1F78004BC0B300BBFE07004F067800FF
:100F8400CF0578008B1F78008C1F78008A1F7800AB
:100F94000B0578008C05780097FE07004F05780054
:100FA4004F067800CF05780080407800370037007E
:100FB4000B0578008C0578000146780056FE070082
:100FC40002A1B7008C60A8004000280004A1B7006B
:100FD40034003700811F78000B0578008C057800F9
:100FE400014678004CFE0700CF0078000CA1B70042
:100FF4008CC0A80011E1A8008141780040C0B30072
:101004008380FB000001FB008209DD000011200049
:1010140090C1690000C3B30080C1610000112000C9
:1010240090C1690000112000034878001D003700BA
:10103400811F78000B0578008C0578000146780044
:1010440035FE0700CF0078001AA1B7008EA0A800D3
:101054001FE1A8008141780040C0B3008380FB00F9
:101064000001FB008209DD00E011200090C169004D
:1010740000C3B30080C16100E011200090C1690089
:10108400E011200003487800060037006154E100B5
:10109400C7FF32006254E100CEFF32006354E10026
:1010A400E3FF32004F067800CF0578004F05780043
:0410B4000000060032
:100A6C00480037008B4078004009200090C0680097
:100A7C00E7C060004009200090C0680040092000D9
:100A8C00014878004C0037008B407800C0092000EA
:100A9C0090C06800E7C06000C009200090C06800EA
:100AAC00C009200001487800430037000B80FB0090
:100ABC0080007800C0C0B3000000FB008008DD009F
:100ACC00E009200090806800000027008080600012
:100ADC00E009200090806800F1048800360037009F
:100AEC000B80FB0080007800C0C0B3000000FB004E
:100AFC008008DD004009200090806800000027007D
:100B0C00808060004009200090806800A10488006B
:100B1C00290037000B80FB008000780080C0B300F8
:100B2C000000FB008008DD00600920009080680058
:100B3C0000702000808060006009200090806800B8
:100B4C00B10488001C0037008B41780040C0B30012
:100B5C008380FB000001FB008209DD00E00920001E
:100B6C0090C1690000C7B30080C16100E00920009A
:100B7C0090C16900E0092000034878000E0037009E
:100B8C000D0037006454E100B6FF32006554E100FB
:100B9C00BDFF32006654E100C4FF32006154E10035
:100BAC00CFFF32006254E100DAFF32006354E100FF
:0C0BBC00E5FF3200F2FF370000000600E9
:1009FC0028FF07000002BE000620EF00641CE10087
:100A0C0014003100849FBE00831F78008A9FBE00B3
:100A1C000400BE0027FF07004F05BE00CF01780081
:100A2C004F02BE008380FB004109DD0041C6280057
:100A3C0002814000920078000100E10002003100C8
:100A4C00034078000500370061C041008041780008
:100A5C00EAFF37000380FB000020ED0000000600D9
:000A6C008A
:1006A0000A00BE000240220043972400D4FE070047
:1006B00002C02C00C35424005EFF070000000600A7
:0006C0003A
:100200000000FA00020007001602040000000000CF
:10021000889FBE008A9FBE008C1F780030000700B8
:100220003700330003866C006450E1002400320084
:100230006420E100270032006150E100220032001A
:100240006120E100210032008B854200EB07B10004
:100250000134B800003AB8000804420089844A001A
:10026000013AB8000030B8008880400009014A0017
:100270000400330000004000818048000201490072
:100280008B05E900C909DD0083017000010032001F
:1002900013002000C814DE004814DD004709DE000A
:1002A0001200B200C808DE000884700024000700B5
:1002B00001F0A1000CF0A70003E0A800190037002E
:1002C0006120E1001B0032000881BE000280BE00F8
:1002D000F7FF37006150E100FCFF3A0015003700DE
:1002E0000084BE003C0007000083BE000485BE0001
:1002F0000280BE0038000700844F75000000060031
:100300000280BE006450E100050036006420E10078
:10031000020036000968A30001003A000880BE0010
:1003200002C0A8004F0678004F05BE004F04BE0073
:1003300000000600F0FF2F00F1FF2700F9FF370053
:1003400081002000618055000B003D000B00200063
:1003500061FE2F000100E1001D0034008281710068
:10036000610164008904D1000884D3000000E80022
:10037000FAFF3A0071002000610064000300700081
:10038000020060000900320061044400E0844C0077
:100390000988A500050032008B05E8006808E10027
:1003A00002003A008904D1000884D300F20F200033
:1003B0000258E10005003D00C75DDD00F907B2000D
:1003C0008980750008008800000006000BF82700EF
:1003D0001B00880000000500C70ADE00F107B2001C
:1003E000F50FB20008003200E1CF420002003200F7
:1003F00002E0A80024000500810F70000100320017
:100400000408050044000500810F700002003A0056
:10041000140005008502E9000000400081C048008A
:10042000FCFF3B0002E0A800240005000080FA0069
:0404300000000600C2
:100434000000FA00020007004C0304000000000062
:10044400889FBE008A9FBE008C1F78003E00070074
:100454004500330003866C006450E1002E00320036
:100464006420E100330032006150E1002F003200CB
:100474006120E1003100320085855500EB07B000B2
:100484000900200008042000050037000804440087
:1004940089844C000A0031000603430087834B0023
:1004A4000001530081815B00F8FF33000283BE002A
:1004B4001000A8000804440089844C00F6FF3900A9
:1004C400C639DD00830173000100320013002000EF
:1004D4008904D1000884D3000998A30005003200E0
:1004E4000800A7000600A8008904D1000884D300EE
:1004F4008B05E8008904D1000884D3000001EB00D7
:100504000281D2002800070001F0A1000CF0A7002E
:1005140003E0A8001D0037006420E1001F00320042
:100524000881BE000280BE00F7FF37006120E100B1
:100534001A0032006000B800F3FF3700000020000A
:1005440001F82700F0FF37000084BE003C000700DC
:100554000083BE000485BE000280BE003800070090
:10056400844F7500000006000280BE006450E10064
:10057400050036006420E100020036000968A3008B
:1005840001003A000880BE0002C0A8004F067800AF
:100594004F05BE004F04BE0000000600F0FF2F0010
:1005A400F1FF2700F9FF370081002000618055002A
:1005B4000B003D000B00200061FE2F000100E10054
:1005C4001D00340082817100610164008904D1003E
:1005D4000884D3000000E800FAFF3A00710020000C
:1005E4006100640003007000020060000900320032
:1005F40061044400E0844C000988A5000500320031
:100604008B05E8006808E10002003A008904D10083
:100614000884D300F20F20000258E10005003D00D9
:10062400C75DDD00F907B200898075000800880005
:10063400000006000BF827001B00880000000500DE
:10064400C70ADE00F107B200F50FB200080032005D
:10065400E1CF42000200320002E0A80024000500BD
:10066400810F7000010032000408050044000500F9
:10067400810F700002003A00140005008502E900B1
:100684000000400081C04800FCFF3B0002E0A800DD
:0C069400240005000080FA0000000600B1
:1006C0000000FA0002000700D4030400000000004C
:1006D0000081BE001F0007000470A70003F0A10006
:1006E0006509B100160032000D0035006828E100F0
:1006F00006003500F0FF2F00F1FF27000600E200A2
:1007000013003B000100280000000500000040002D
:10071000818048008502E900FCFF3A0008003700AC
:10072000F88F420002003C008000EB000000050052
:100730008100D1000080D3008502E800FCFF3A0070
:100740000600E20002003B0060001000E08018009C
:1007500000000600C70ADE00F107B200F50FB20084
:1007600008003200E1CF42000200320002E0A8009F
:1007700024000500810F700001003200040805000C
:1007800044000500810F700002003A0014000500CB
:100790008502E9000000400081C04800FCFF3B00EA
:1007A00002E0A800240005000080FA000000060016
:0007B00049
:10091C000800FA008C1F78000A00BE00024022007A
:10092C004397240033FE07004F06780020079800F9
:10093C00310798000C80FB00C100DD0040C6280088
:10094C0001014000120078008000EB0095FF0700C9
:10095C00D2CC2C00C3D4230026FE0700000798003D
:10096C00110798002E009000BE009000829FBE00E0
:10097C000E0190009E019000ABFE07004F01BE00DF
:0C098C004CFF07000080FA00000006008D
:1007B0000000FA00020007008A04040000000000A4
:1007C0000400E20006003A000005EB000200E2002F
:1007D0000F003E000000E200270032000C0037004E
:1007E000A10088000200E2000400350008003C007F
:1007F0000000E20020003200050037006000100019
:10080000E080180002003B0001F02C001A003700C5
:100810000084BE006011B8006B0920000982CF007F
:10082000020039000882CF000441B0006942520042
:100830000E00320008003B008281710061016400FB
:100840008904D1000884D3008B05E8000442E80045
:10085000F9FF3A00050037000804440089844C0081
:100860008B05E9000442E900FBFF3A0003000700A2
:100870000AF0A70003E0A8000000060081002000A5
:10088000618055000B003D000B00200061FE2F0031
:100890000100E1001D0034008281710061016400EB
:1008A0008904D1000884D3000000E800FAFF3A0070
:1008B000710020006100640003007000020060000D
:1008C0000900320061044400E0844C000988A5005E
:1008D000050032008B05E8006808E10002003A00DC
:1008E0008904D1000884D300F20F20000258E100EF
:1008F00005003D00C75DDD00F907B2008980750085
:1009000008008800000006000BF827001B00880084
:0C091000000005000080FA000000060056
:1016B0000420EF006814E100070031008280FB0085
:1016C000F087200081004000A0CAB3008048780065
:1016D0000460EC00F7FF3700E18720000020EF00F6
:0816E0008048780000000600BC
:1016E8003400F8003600F800801F78002000200041
:1016F8000C000900B01F78008A1F78008460A900D8
:10170800E9FF070011C0B3009084200010C8100042
:1017180011C0B3008084200010C8100090842000FD
:101728001004E000070032006A862000E9FE070086
:101738002A852000E7FE070091842000F0C0B3004E
:1017480080487800808420001004E00043003200C4
:101758002A83200080FE0700004178006004E10031
:1017680003003200E187200010C0B30080487800F1
:10177800408420001004E000090032006014E100F9
:10178800070032006114E10002003A0011C0B30002
:10179800010037000220EF0010882000014878007F
:1017A800408420001004E00009003A006014E100C1
:1017B800070032006114E10002003A0011C0B300D2
:1017C800010037000220EF0000882000014878005F
:1017D800CA81200060FE0700004178006004E10033
:1017E80003003200E187200010C0B3008048780071
:1017F800E08220001004E000090032006014E100DB
:10180800070032006114E10002003A0011C0B30081
:10181800010037000220EF003088200001487800DE
:10182800E08220001004E00009003A006014E100A2
:10183800070032006114E10002003A0011C0B30051
:10184800010037000220EF002088200001487800BE
:101858008184200020C0B300804878004F057800BC
:10186800A00120000C0009004F1078004F007800FC
:0C1878003600F9003400F90000400600C2
:1012DC000200FA008B1F78006E0045001080FB00A6
:1012EC00E7001000100020000100DD000041780034
:1012FC006C004500104078006004E10003003A00E7
:10130C000240780000C1EA0000003700E00147000D
:10131C00EF0045006E0045001080FB00008040008F
:10132C0090497800618041000248780068004500CF
:10133C00640145008A0078008A1F78001620EF00AF
:10134C000305780001000900B01F78000200780046
:10135C0001000900B01F78000100780001000900AD
:10136C00B01F780015FE0700CF00B1004F057800C4
:10137C00EE00450011407800E14840006E00450049
:10138C00ED004500104078001104E1000300390025
:10139C00EE0045000020EF0080487800CF05780073
:0813AC000080FA0000000600B9
:100BC8000800FA006E0057008A9FBE000100090065
:100BD800B01F78006EFF07004F00B1004F05BE0040
:100BE800670020000E20ED00FEFF3A000000000024
:100BF800000000000020EF00704798007E40900041
:100C08006804E10049003100615CE10017003A0026
:100C18001A4078008080FB00670047001080FB00C6
:100C28000008DD0000E0AE00080037006A00570049
:100C38008A9FBE0001000900B01F780061FF07000D
:100C48004F00B1004F05BE00070037006A0057008B
:100C58008A9FBE0001000900B01F78004CFF070002
:100C68004F00B1004F05BE00160037001A4078004B
:100C78008080FB00670047001080FB000008DD0053
:100C88000000AE00080037006A0057008A9FBE00C7
:100C980001000900B01F78004AFF07004F00B100AB
:100CA8004F05BE00070037006A0057008A9FBE0044
:100CB80001000900B01F780035FF07004F00B100A0
:100CC8004F05BE006E0057008A9FBE000100090054
:100CD800B01F78003BFF07004F00B10067002000FD
:100CE8000E20ED00FEFF3A000000000000000000AA
:100CF8006E00570001000900B01F780024FF0700AC
:100D08004F00B1004F05BE00670020000E20ED0027
:100D1800FEFF3A000000000000000000FE409000C6
:100D28006700470061C84000B4FF37000020EF00AB
:100D3800704798007E4090006804E1004B00310045
:100D4800615CE10018003A0061004500104078003D
:100D58008080FB00670047001080FB000008DD0072
:100D680000E0AE00080037006A0057008A9FBE0006
:100D780001000900B01F780012FF07004F00B10002
:100D88004F05BE00070037006A0057008A9FBE0063
:100D980001000900B01F7800FDFE07004F00B100F8
:100DA8004F05BE001700370061004500104078006D
:100DB8008080FB00670047001080FB000008DD0012
:100DC8000000AE00080037006A0057008A9FBE0086
:100DD80001000900B01F7800FAFE07004F00B100BB
:100DE8004F05BE00070037006A0057008A9FBE0003
:100DF80001000900B01F7800E5FE07004F00B100B0
:100E08004F05BE006E0057008A9FBE000100090012
:100E1800B01F7800EBFE07004F00B100670020000C
:100E28000E20ED00FEFF3A00000000000000000068
:100E38006E00570001000900B01F7800D4FE0700BB
:100E48004F00B1004F05BE00670020000E20ED00E6
:100E5800FEFF3A000000000000000000FE40900085
:100E68006700470061C84000B2FF370072005700B2
:100E78008A9FBE0001000900B01F7800D1FE07005C
:100E88004F00B100670020000E20ED00FEFF3A0081
:100E98000000000000000000720057000100090077
:100EA800B01F7800BAFE07004F00B1004F05BE0022
:100EB800670020000E20ED00FEFF3A000000000051
:0C0EC800000000000080FA00000006009E
:100998000000FA00680057009080FB00100020005B
:1009A8000100DD0080C0EA003EB897001080FB001F
:1009B800810060003EB89700014878000080FA0086
:0409C8000000060025
:1009CC000000FA00680057009080FB001000200027
:1009DC008100DD003EB897001080FB0081007000A4
:1009EC003EB89700014878000080FA00000006002D
:0009FC00FB
:101160000200FA0000002000104798000A007800F2
:101170008A1F780001000900B01F78006AFF07008D
:101180004F00B1004F057800004178006400450031
:10119000821F78008A1F780001000900B01F7800C4
:1011A00061FF07004F00B1004F057800004798002D
:1011B000680045008A1F780001000900B01F780010
:1011C00059FF07004F00B1004F0578004F0178002C
:1011D000804178000040E2000A003A0074004500B7
:1011E0001004E00007003200F00045006E004500EA
:1011F00090087800F200450010C0B30080487800E5
:101200000F00370070004500100078006000E1001A
:1012100008003600720045001004E00005003200AE
:10122000F0004500110078000020ED0080087800F3
:1012300003003700F20045000020EF0080487800EE
:10124000740045000640E200020032000220EF0078
:101250000100370011C0B300014878007300450059
:101260001004E000120032006C0045001014E10090
:101270000B003A000440E200090032006000470021
:101280001004E0000300320011C0B30001407800F8
:101290000200370021C0B3000140780010479800D9
:1012A000F30045000020EF0080487800060037007A
:1012B0006C0045001014E10003003200F30045000B
:1012C00010C0B300804878006C00450002487800E8
:0C12D0001E4090000080FA0000000600A4
:1018C80001000000080000004000000000010000C6
:0200000401F009
:1C000000068300003F000000B38700000F3100000F3300000700000003C0000096
:00000001FF
